:020000040800F2
:1000000000040020DF010008ED010008EF010008F6
:10001000F1010008F3010008F501000800000000EC
:10002000000000000000000000000000F7010008D0
:10003000F901000800000000AF2A0008F9050008D7
:10004000FF010008FF010008FF010008FF01000890
:10005000FF010008FF010008FF010008FF01000880
:10006000FF010008FF010008FF010008FF01000870
:10007000FF010008FF010008FF010008FF01000860
:10008000FF010008FF010008FF010008FF01000850
:10009000FF010008FF010008FF010008FF01000840
:1000A000FF010008FF010008FF010008FF01000830
:1000B000FF010008FF010008FF010008FF01000820
:1000C000FF010008FF010008FF010008FF01000810
:1000D000FF0100081B070008FF010008FF010008DE
:1000E000FF010008FF010008FF010008FF010008F0
:1000F000FF010008FF010008FF010008FF010008E0
:10010000FF010008FF010008FF010008FF010008CF
:10011000FF010008FF010008FF010008FF010008BF
:10012000FF010008FF010008FF010008FF010008AF
:1001300000F002F800F03CF80AA090E8000C8244BD
:100140008344AAF10107DA4501D100F031F8AFF29A
:10015000090EBAE80F0013F0010F18BFFB1A43F0A5
:10016000010318471833000038330000103A24BF49
:1001700078C878C1FAD8520724BF30C830C144BF0C
:1001800004680C607047000000230024002500264E
:10019000103A28BF78C1FBD8520728BF30C148BFEA
:1001A0000B6070471FB502F0B8FF1FBD10B510BD42
:1001B00002F00CFD1146FFF7F5FF00F073F802F0B6
:1001C0002AFD03B4FFF7F2FF03BC00F099FA000028
:1001D00030BF72B662B680F30888704770470B482C
:1001E00080470B4981F308880A480047FEE7FEE78D
:1001F000FEE7FEE7FEE7FEE7FEE7FEE7FEE7FEE7D7
:1002000005480649044A064B70470000DD01000816
:100210000017002031010008000F00200017002007
:10022000000F002010B50EE000202A4908604FF4AE
:10023000967000F03EFA01202749C1F894014FF46E
:10024000967000F036FAEFE710B50EE00020234973
:1002500008604FF0500000F02CFA01202049C1F84E
:1002600094014FF4667000F024FAEFE770B504468D
:10027000002500BF02F0F4FB05460723194A0021C0
:10028000AFF23B0001F0B8FF0623174A0021AFF29E
:100290006B0001F0B1FF0A2002F038FA284602F0A4
:1002A000E3FB70BD10B5092000F041F9482000F0D3
:1002B000ABF900F0F9FA00F0F7FA00F064FC0A2359
:1002C0000A4A0021AFF25B0001F096FF00F07CFDCE
:1002D000002010BD9401234200002342948121425A
:1002E00000802142500200205003002050010020D5
:1002F000AF4A0A400243AF4B1A607047072323EA14
:1003000000021202AC4B19684FF6FF0301EA030129
:10031000AA4B41EA030141EA02014FF0E023C3F88E
:100320000C1D70472DE9F04704460D4616461F4642
:100330003046F11706EB91714FEAA109F11706EB70
:1003400091718910A6EB810101F0FF0A042101EBF4
:10035000CA0000F0FF0A3846FFF7D0FFC7F10400DB
:1003600004FA00F80F203841284040EA080808F055
:100370000F08202E0CDA924800684FF0010101FAB4
:1003800006F140EA01004FF0E021C1F800010DE064
:100390008C480168A6F120024FF0010000FA02F03B
:1003A00041EA00014FF0E020C0F80411864850F8FF
:1003B000290008FA0AF10143834840F82910BDE8F2
:1003C000F08770B50D46CE1701EB9676B310CE17B9
:1003D00001EB9676B610A1EB8606B606340E7B4D81
:1003E000AD6945F00105794EB5614FEAB63555F86E
:1003F00023600F25A540AE43754D45F8236055F8A1
:10040000235000FA04F63543714E46F82350714DDF
:100410002E684FF0010505FA01F546EA05066E4D16
:10042000C5F8006412F0010F0AD06C4D2E684FF031
:10043000010505FA01F546EA0506674DC5F80C64A5
:1004400012F0020F0AD0664D2E684FF0010505FA32
:1004500001F546EA0506604DC5F8086470BD00B5B3
:1004600000205A490861C860142048610020886152
:10047000C8610846006840F001000860084640680E
:1004800058490840514948600846006856490840A4
:100490004E4908600846006820F48020086008463D
:1004A000406820F4FE0048600020886000214FF082
:1004B0000060FFF71DFF00BD10B54C48006840F01C
:1004C00004004FF0E021C1F8100D4048C06940F031
:1004D00080503E49C8614648406840F480704449B5
:1004E00048600846006840F004000860084600685C
:1004F00040F002000860FFF76BFE10BD2F48001DA2
:100500002D49086070470146084649062F4A9269FE
:1005100042F001022D4B9A612F4A526822F0E062AC
:100520002D4B5A601A4652680A435A60704730B5DC
:1005300004460025FFF793FF2448006840F480300C
:100540002249086000BF21480068400CFBD04FF4EE
:1005500080601E494860A01EC4B20846406840EA58
:10056000844048600846406840F480304860214834
:10057000006840F032001F4908601448006840F0ED
:1005800080701249086000BF10480068400EFBD020
:100590000E48406840F002000C49486005E00B48F6
:1005A0004068C0F3870505F00305022DF7D130BD83
:1005B00080FFFF1F08ED00E00CED00E00000FA05F1
:1005C00000E100E004E100E000E400E0001002408F
:1005D0000800014000040140000001400C040140FB
:1005E000080401400000FFF8FFFFF6FE10ED00E0F8
:1005F000007000400020024010B500F0DAFA00F070
:100600001AFC00F0F1FA10BD10B54FF0E0221269AB
:1006100022F004024FF0E0231A610246C31700EBF8
:100620005373DB10344C2370C31700EB5373D91092
:1006300041F2883251430522A31C1A804FF0E02278
:10064000126942F002024FF0E0231A611A4651612A
:10065000126942F001021A6110BD2DE9F04704460B
:100660004FF000084FF0E020D0F8149022480078B6
:1006700004FB00F500BF00F0EFFA4FF0E0208669C0
:1006800011E04FF0E0208769B7420CD0B74202D2A8
:10069000F01B804403E0A9EB0700304480443E4651
:1006A000A84500D300E0ECE700BF00F01AFBBDE86E
:1006B000F08770B5044611480078012814D10E481F
:1006C000801C0088844207DB0B48801C008894FB58
:1006D000F0F5284602F0E6F80748801C008894FBF5
:1006E000F0F100FB114084B24FF47A7104FB01F089
:1006F000FFF7B3FF70BD00000000002032000020B3
:10070000014600BF704700BF5D4A128812F0400FDB
:10071000FAD0C2B25B4B1A80704710B500F049FAAC
:100720005748008810F0200F33D056480088C4B2D4
:100730005548008810F4004F2BD15348008810F41E
:10074000804F0CD00A2C03D000204F49088020E0B5
:100750004D48008840F400404B49088019E00D2CBA
:1007600006D14948008840F480404749088010E09D
:1007700045480088C0F30D0044490C5442480088A5
:10078000401C4149088008460088C72801DD002038
:10079000088000F029FA10BD2DE9F05F04460D46EF
:1007A000280102F00CFC8146394904FB01F002F0FB
:1007B00006FC8246494602F0CBFA0646304602F075
:1007C000B9FB87B2384602F0FAFB8346314602F0A5
:1007D000ABFC82464FF0834102F0F6FB814602F00B
:1007E000A9FB80463F0107EB080087B229488069D2
:1007F00040F00400274988610846806940F4804041
:1008000088612548006820F47F602449C1F8040805
:100810000846D0F8040840F40B60C1F804081D48ED
:10082000C06840F480401B49C8600846C06820F496
:100830008040C8601A48A0F808781A48008842F238
:100840000C0140EA01001649A1F80C080846B0F86E
:100850000C0840F48070A1F80C080846B0F80C08A9
:1008600040F020000F4908804FF002034FF02502AE
:100870004FF003010846FFF755FDBDE8F09F00006B
:1008800000380140043801400400002054030020D7
:1008900040420F00001002400408014000000140E7
:1008A000003001400C3801401B48806940F00800CE
:1008B000194988610846806940F0400088611748FE
:1008C000006820F470001649C1F8000C0846D0F802
:1008D000000C40F44010C1F8000C0846D0F80C0C95
:1008E00040F02000C1F80C0C0E48D0F8000820F4AD
:1008F00070000C49C1F800080846D0F8000840F420
:100900004010C1F800080846D0F80C0840F020005C
:10091000C1F80C087047000000100240000C0140B4
:1009200000000140001001407CB5002614E069463B
:10093000304601F0A8FE054665B9FA4850F8264051
:1009400044B1012C06D0D4E9020100EB81006064BF
:100950000198A064701CC6B23F2EE8D97CBD70B56A
:10096000002400BF02E0282001F09CFFEE48007840
:100970000028F8D0ED4800686421B0FBF1F0EB49A5
:1009800008600846006828B90020E9490870FF207F
:1009900001F0BCFE00BF02F063F80446E5480068C1
:1009A000E54908600020E3490860204602F05CF851
:1009B000E1480068DD490968B0FBF1F0C0F164006E
:1009C000DB49087002F0ABF8FFF7AEFF142001F02E
:1009D00069FFE0E700B587B0032300228021D748F4
:1009E000CDE90323CDE901014FF6FE7300933E23C9
:1009F00000F5FE720021AFF2990001F053FC06AA47
:100A0000CFA13E2001F0BFFD07B000BD70B50024AE
:100A100000BF00BF02F024F80446C6480068401C2E
:100A2000C4490860204602F01FF802F077F8F1E7A9
:100A300000B587B0032300228021C548CDE90323F8
:100A4000CDE901014FF6FF7300933F2300F5FE72DD
:100A50000021AFF2470001F025FC06AABDA13F200E
:100A600001F091FD07B000BD04E0002200F8012B69
:100A70004A1E91B20029F8D1704770B5C821B94813
:100A8000FFF7F2FF00230FE0581C84B203EB830052
:100A9000B44901EB800504EB840001EB80060020E3
:100AA00028706E60581C83B2092BEDD303EB8300D2
:100AB000AC4901EB80050020287068600846AA490F
:100AC000086070BD70B54FF47C71A848FFF7CCFF8B
:100AD0004FF480719348FFF7C7FF002313E0581CC1
:100AE000C4B2C3EBC30000EB4000A04901EB80059A
:100AF000C4EBC40000EB400001EB80066E619CA0DB
:100B0000E864581CC3B20B2BE9D3C3EBC30000EB62
:100B10004000964901EB80050020686194A0E864DC
:100B200000209449086091489349086070BD0021F5
:100B3000924A1170002004E00021914A1154411C96
:100B4000C8B20828F8D300218E4A11708E4A11705D
:100B50008E4A11608E4A1160704700208D490860EE
:100B60008D4908708D4908708D4908708D4908704D
:100B70008D4908606F4908606F4908606B490860DB
:100B800069490870704710B501F0C4FFFFF7E5FF31
:100B9000FFF7CDFFFFF796FFFFF76FFF00F058FF5D
:100BA00001F055FAFFF744FFFFF714FF01F0B3FF20
:100BB00010BD7C480078012808D177480078FF28CC
:100BC00004D275480078401C734908707047774913
:100BD0006A4A1278885C6A49095C744A515C01EB84
:100BE000C001694A1170704710B500246D48007843
:100BF000012830D101F034FF04466748007820B165
:100C000065480078401E6449087063480078F8B968
:100C100062480078E0B9FFF7DAFF42485A4909789C
:100C200050F821005949086057480078554909781B
:100C300088420DD055480068806B401C53490968B4
:100C4000886359480068401C5749086001F027FF35
:100C5000204601F009FF10BD10B50024514800786E
:100C6000012811D101F0FCFE04464B48007840B940
:100C70004A480078FF2804D248480078401C474979
:100C80000870204601F0F0FE10BD10B5002401F000
:100C9000E7FE044640480078F8B940480078E0B9DB
:100CA000FFF795FF1F483849097850F82100374968
:100CB0000860354800783349097888420DD03348B8
:100CC0000068806B401C31490968886336480068B9
:100CD000401C3549086001F0DBFE204601F0C4FEEF
:100CE00010BD10B500242F48007801286BD101F009
:100CF000B7FE04462948007880B128480078401E95
:100D0000264908700846007848B92348007838B961
:100D1000204601F0A9FEFFF7B8FF54E050E04BE099
:100D200046E0000034090020240000201C000020C0
:100D3000180000203400002020000020340500208E
:100D400075432F4F532D494920537461740000009F
:100D50003407002075432F4F532D49492049646CB7
:100D6000650000001C04002010000020340A002050
:100D70003F000000440000203C000020290000202B
:100D80002A0000202700002028000020400000202A
:100D90003800002050000020250000202600002000
:100DA00033000020320000200C0000207A330008BD
:100DB000204601F059FE06E0204601F055FE02E013
:100DC000204601F051FE10BD10B5FF48007890B9E3
:100DD000FFF7FDFEFD480078FD490870FD48FB491E
:100DE000097850F82100FC49086008460068FB4972
:100DF000086001F03CFE10BD10B50024022001F097
:100E000051FD01F02DFE04460020F5490860204602
:100E100001F02AFE142001F045FD01F021FE0446F8
:100E2000EF480068EF4908600120EF49087020464C
:100E300001F01AFE10BD70B5002601F0C0FE01F0F1
:100E40000FFE0646E9480068401CE8490860304645
:100E500001F00AFEDC480078012857D1E448007808
:100E600020B1012804D0022809D103E001250BE0BC
:100E7000002509E001250120DD49087004E0012575
:100E80000020DB49087000BF00BF05B970BDD9481C
:100E9000046837E001F0E4FD0646E06A70B3E06AFA
:100EA000401EE062E06A48BB94F8300010F0370F53
:100EB00009D014F8300F00F0C800207001206070D5
:100EC000A4F1300402E0002084F8310094F83000EE
:100ED00010F0080F12D104F13404A078C649097843
:100EE00040EA0100C44908702078C449085C617870
:100EF00040EA010014F83419C04A5054646930467D
:100F000001F0B2FD94F832003F28C3D1BEE740F2B1
:100F100023107047704710B590F8342001F10B038F
:100F20009C5C90F83530DB43DBB21C4001F10B03D5
:100F30009C549B5C33B98B7A90F83640E443E4B21E
:100F400023408B7210BD2DE9F04F04460D46164626
:100F50001F46A07AAA4911F8009004F10B0010F87E
:100F6000090011F800A00AEBC90000F0FF0B994836
:100F700050F82B800020C8F82C00C8F8205098F8B2
:100F80003000F143C9B2084088F8300088F8317069
:100F900098F8300010F0080F0FD198F836009649F5
:100FA0000978084394490870944810F8090098F8A3
:100FB00035100843914901F8090021464046FFF7E2
:100FC000AAFF5846BDE8F08F10B5844A1268D06178
:100FD000824A126892F8343000F10B02D35C7F4AE7
:100FE000126892F8352013437C4A126892F8344014
:100FF00000F10B021355827A784B1B6893F8363058
:101000001A438272754A126892F834107B4A525C15
:10101000724B1B6893F83530DB43DBB21A40774BD9
:101020005A541A46525C52B96C4A126892F83620E9
:10103000D243D2B2704B1B781A406F4B1A7010BD5E
:1010400000228272002105E0002300F10B025354BC
:101050004A1CD1B20829F7D3704705E011F8013BCB
:1010600000F8013B531E9AB2002AF7D1704701469F
:10107000002002E0491C421CD0B20A78002AF9D1B3
:1010800070472DE9FC5F04460D4616461F46DDE914
:101090000D9ADDF830800020019001F0E1FC019014
:1010A0005848D0F800B0BBF1000F7ED05549DBF8AE
:1010B00014000860019801F0D7FCCBF800508BF8C1
:1010C000324000208BF830008BF83100CBF82C0038
:1010D000CBF80490CBF80C80CBF80860ABF810A0EC
:1010E000ABF812708BF83700E0108BF8340004F086
:1010F00007008BF833009BF83410012088408BF8F0
:1011000036009BF83310012088408BF83500002012
:10111000CBF81C00CBF82400CBF82000CBF838002B
:10112000CBF84000CBF83C00CBF84400CBF84800AB
:10113000AFF2C430CBF84C000020009009E0002151
:101140000BF15000009A40F822100098401CC0B2E9
:10115000009000980028F2D0584601F02FFD584624
:1011600001F0DAFC01F07CFC01901A4840F824B050
:1011700020480068CBF814000020CBF818001D4868
:10118000006818B11B480068C0F818B01948C0F8CA
:1011900000B09BF8360018490978084316490870D2
:1011A0009BF834001549085C00E034E09BF83510EA
:1011B00008439BF83410114A505413480078401CDF
:1011C00011490870019821E0320000202800002019
:1011D00027000020340900204000002038000020B3
:1011E000340000201C0000202400002050000020BB
:1011F0004800002044000020290000202A00002090
:101200007A3300083C0000203300002001F02CFC61
:101210000020BDE8FC9F019801F026FC4220F8E781
:101220002DE9F05F04460D4616461F464FF0000BB1
:101230002078052804D0012038700020BDE8F09FF8
:1012400006F08009B9F1000F04D026F080064FF0B7
:10125000010A01E04FF0000A0020387001F000FCA4
:1012600083468EB3012E45D0022E02D0032E57D1D5
:1012700014E0208900EA0508A84509D1BAF1010F58
:1012800008D120896FEA080189B20840208101E075
:1012900070203870584601F0E7FB49E0208900EAE9
:1012A0000508B8F1000F09D0BAF1010F08D1208963
:1012B0006FEA080189B20840208101E0702038708F
:1012C000584601F0D1FB33E0FFE72089C04380B2EC
:1012D00000EA0508A84507D1BAF1010F06D1208917
:1012E00040EA0800208101E070203870584601F083
:1012F000BBFB1DE02089C04380B200EA0508B8F1BD
:10130000000F07D0BAF1010F06D1208940EA08008A
:10131000208101E070203870584601F0A5FB07E0FD
:10132000584601F0A1FB4FF000086F20387000BF55
:1013300000BF404682E72DE9F04104460D460027F4
:10134000F848007820B1102028700020BDE8F08116
:1013500001F086FB0746F448066886B100684068DD
:10136000F149086005203070348100207060EFA0E2
:10137000F060384601F078FB0020287004E0384621
:1013800001F072FB722028703046DFE730B5436809
:1013900004682BB9C26854602CB10025656002E076
:1013A0001C6004B16360816800254D6230BDF0B5FA
:1013B00004460D46A668002006F1280670603580B8
:1013C000307A00F0DF0030724FF000007072307A37
:1013D000A6F12806A8B906F13406B078D4490978F0
:1013E00040EA0100D24908703078D249085C71782F
:1013F00040EA010016F83419CE4A50544FF0010764
:1014000000E000272046FFF7C1FF3846F0BD2DE978
:10141000F04704460D4616464FF0000AC1480078D2
:1014200020B10F2030702046BDE8F08720780528D5
:1014300003D0012030702046F6E701F011FB824610
:10144000606808B1012700E0002715B1012D3CD1EB
:1014500019E08FB9B5A0E06000202070B2480068A4
:10146000606000202081B0480460504601F0FCFA22
:1014700000203070804605E0504601F0F5FA492022
:101480003070A04628E0D4F8049005E000214846DA
:10149000FFF78DFFD9F80090B9F1000FF6D1A3A0A6
:1014A000E06000202070A04800686060002020817B
:1014B0009D480460504601F0D7FA012F01D1FFF793
:1014C000E4FB00203070804606E0504601F0CCFA84
:1014D00007203070A04600BF00BF4046A4E72DE9BA
:1014E000F04104460D46164600278E48007820B18C
:1014F000112030700020BDE8F08101F0B1FA0746FC
:101500002078052806D0384601F0AEFA0120307068
:101510000020F0E7E06828602868FFF7A8FD804613
:10152000384601F0A1FA002030704046E3E72DE98B
:10153000F04104460D46164600277A48007818B157
:1015400012203070BDE8F08101F08AFA0746207859
:10155000052805D0384601F087FA01203070F1E700
:10156000E560384601F080FA00203070EAE7F0B517
:10157000059D714F3F6897F8307047F02007DFF8FE
:10158000B8C1DCF800C08CF830700027DFF8A8C1C3
:10159000DCF800C08CF83170674F3F68FD62664F21
:1015A0003F6879620A828B74634F3F688F60476837
:1015B0000F6000274F60C860466806B171604160E7
:1015C0005D4F3F6897F834405A4F3F5DDFF868C180
:1015D000DCF800C09CF835C06FEA0C0C0CF0FF0C76
:1015E00007EA0C07DFF84CC10CF8047067463F5D52
:1015F0007FB9514F3F6897F83670FF43FFB2DFF86D
:1016000030C19CF800C007EA0C07DFF824C18CF851
:101610000070F0BD2DE9F04F89B004460D46164626
:101620001F46DDF84880002002903E48007830B127
:10163000022088F80000002009B0BDE8F08F3F4884
:10164000007820B10D2088F800000020F4E7207811
:10165000052804D0012088F800000020ECE706F0FF
:1016600080000390039820B106F07F064FF0010B35
:1016700001E04FF0000B01F0F3F90290002E5FD073
:10168000012E77D0022E02D0032E74D124E02089BF
:1016900000EA0509A94514D1BBF1010F05D1208944
:1016A0006FEA090189B20840208123480068A0F848
:1016B0002890029801F0D8F9002088F800004846E8
:1016C000BAE733462A4604A920460097FFF74FFFA2
:1016D000029801F0C9F98AE0208900EA0509B9F108
:1016E000000F14D0BBF1010F05D120896FEA090169
:1016F00089B20840208110480068A0F8289002981C
:1017000001F0B2F9002088F80000484694E733461B
:101710002A4604A920460097FFF729FF029801F006
:10172000A3F964E025000020140000203F00000021
:10173000290000202A000020380000202600002078
:101740002089C04380B200EA0509A94514D1BBF144
:10175000010F03D1208940EA09002081D0480068A8
:10176000A0F82890029801F07FF9002088F8000086
:10177000484661E70BE030E033462A4604A920469C
:101780000097FFF7F4FE029801F06EF92FE0208930
:10179000C04380B200EA0509B9F1000F12D0BBF1D5
:1017A000010F03D1208940EA09002081BC4800686C
:1017B000A0F82890029801F057F9002088F800005E
:1017C000484639E733462A4604A920460097FFF7E2
:1017D000CEFE029801F048F909E0029801F044F9C0
:1017E0004FF000096F2088F80000484624E700BF4A
:1017F000FFF74BFA01F034F90290A948006890F81D
:10180000310038B3A648006890F831A00020A44900
:10181000096881F8310004A8FFF7B8FD0020A0494D
:10182000096881F83000029801F01EF94FF00009B4
:10183000BAF1010F07D0BAF1020F03D10E2088F8D8
:10184000000004E000BF0A2088F8000000BF00BFCD
:101850004846F1E692480068B0F82890BBF1010FC5
:101860001ED176B1012E0DD0022E02D0032E0ED144
:1018700000E000BF20896FEA090189B20840208199
:101880000DE000BF208940EA0900208107E00298AE
:1018900001F0EAF86F2088F800000020CCE600BFD5
:1018A000029801F0E1F8002088F800004846C3E6FD
:1018B00070B5002501F0D4F8054679480068048D1C
:1018C000284601F0D1F8204670BD2DE9FC5F0446A2
:1018D0000D4616461F46002000902078052804D0AB
:1018E000012038700020BDE8FC9F01F0B9F800909D
:1018F00016B1012E0AD105E02089E94389B20840DA
:1019000020810AE020892843208106E0009801F028
:10191000ABF8712038700020E5E700BF4FF00009F8
:10192000D4F8048065E098F8120068B3012841D02B
:10193000022802D0032852D113E02089B8F81010F1
:1019400000EA010AB8F81000504509D15146404656
:10195000FFF72DFD8346BBF1010F01D14FF00109C7
:1019600044E02089B8F8101000EA010ABAF1000F2B
:1019700009D051464046FFF71AFD8346BBF1010FDF
:1019800001D14FF0010931E02089C04380B2B8F89D
:10199000101000EA010AB8F81000504509D151466C
:1019A0004046FFF704FD8346BBF1010F01D14FF024
:1019B00001091BE02089C04380B2B8F8101000EA8A
:1019C000010ABAF1000F09D051464046FFF7EFFC7B
:1019D0008346BBF1010F01D14FF0010906E00098E9
:1019E00001F042F86F20387000207CE700BFD8F883
:1019F0000080B8F1000F96D1009801F035F8B9F1E8
:101A0000010F01D1FFF741F901F02AF80090208978
:101A10000190009801F028F800203870019862E7E2
:101A20002DE9F04104460D4600272078052804D012
:101A3000012028700020BDE8F08101F011F8074670
:101A40002689384601F010F8002028703046F2E769
:101A50002DE9F04150211348FFF706F800240EE06D
:101A6000601C85B20F4800EB041600EB0517002040
:101A700030707760AFF24C30F060601C84B2042CA0
:101A8000EED3084800EB0416002030707060AFF20F
:101A90006430F060034804490860BDE8F08100004C
:101AA00038000020E4040020140000202DE9F0415B
:101AB00004460D464FF000082078022804D001208B
:101AC00028700020BDE8F08100F0CAFF80466768FA
:101AD000F88A78B13969081D38610E68F88A401EA5
:101AE000F882B9683869884201D178683861002085
:101AF000287002E01F2028700026404600F0B4FF46
:101B00003046DFE72DE9F04104460D464FF000086E
:101B1000FA48007810B10020BDE8F08100F0A0FF85
:101B20008046F7480668006820B1F54800684068BC
:101B3000F3490860404600F097FF3EB300F090FF85
:101B40008046F0480768C7B100680068ED49086042
:101B5000404600F089FF7C6004EB8500B860FC60C3
:101B60003C61BD820020F88202203070002030816C
:101B700077603046FFF764FA08E0E148006870607B
:101B8000DF480660404600F06FFF00263046C3E79E
:101B90002DE9F04704460D4616464FF0000A20781E
:101BA000022804D0012030702046BDE8F087D348D9
:101BB000007818B10F2030702046F6E700F050FF93
:101BC0008246A07A08B1012700E0002715B1012D57
:101BD00048D120E0C7B9D4F80480CA480068C8F8E2
:101BE0000000C848C0F8008000202070C448006889
:101BF000606000202081C2480460504600F034FF3D
:101C000000203070814605E0504600F02DFF49204D
:101C10003070A1462DE005E000230422194620463D
:101C2000FFF791F9A07A0028F6D1D4F80480B548DE
:101C30000068C8F80000B348C0F800800020207099
:101C4000AF480068606000202081AD4804605046C5
:101C500000F00AFF012F01D1FFF717F800203070C4
:101C6000814606E0504600F0FFFE07203070A14696
:101C700000BF00BF484698E770B50446002600F054
:101C8000EFFE064665686868E860686828610020BD
:101C9000E882304600F0E8FE002070BD2DE9F047F4
:101CA00004460D4616464FF000092078022804D05D
:101CB000012030700020BDE8F0879048007818B10E
:101CC000022030700020F6E78F48007818B10D2010
:101CD00030700020EFE700F0C3FE8146D4F80480A6
:101CE000B8F81600D8B1D8F81010081DC8F81000C0
:101CF0000F68B8F81600401EA8F81600D8F80810AB
:101D0000D8F81000884203D1D8F80400C8F81000B1
:101D1000484600F0A9FE002030703846CBE77B48EB
:101D2000006890F8300040F004007849096881F8B4
:101D3000300000207549096881F831007348006857
:101D4000C5622046FFF740F9484600F08DFEFEF7D9
:101D50009CFF00F085FE81466C48006890F83100D9
:101D600020B101280DD002280AD105E0674800689B
:101D7000076A002030700DE000270E20307009E067
:101D800000BF214661480068FFF7C5F800270A2018
:101D9000307000BF00BF00205C49096881F8300046
:101DA0005A49096881F8310058490968C86157499A
:101DB00009680862484600F057FE38467BE72DE97F
:101DC000F04104460D4616464FF0000820780228E0
:101DD00004D0012030700020BDE8F08100F040FE0A
:101DE0008046A07A20B300277DB1012D0CD107E0F9
:101DF0000223042200212046FFF7A5F8781CC7B271
:101E0000A07A0028F4D109E000BF022304220021B7
:101E10002046FFF798F8781CC7B200BF00BF4046C5
:101E200000F022FEFEF731FF0E2030703846D3E777
:101E3000404600F019FE00203070CDE72DE9F0415A
:101E400004460D4600272078022802D00120BDE874
:101E5000F08100F005FE0746A07A60B1002304225D
:101E600029462046FFF76FF8384600F0FDFDFEF7E3
:101E70000CFF0020EBE76668F08AB18A884204DB39
:101E8000384600F0F1FD1E20E1E7F168081DF06022
:101E90000D60F08A401CF082D6E90210884201D120
:101EA0007068F060384600F0DFFD0020CFE72DE9D4
:101EB000F04104460D4600272078022802D0012078
:101EC000BDE8F08100F0CCFD0746A07A60B10023A8
:101ED000042229462046FFF736F8384600F0C4FDB4
:101EE000FEF7D3FE0020EBE76668F08AB18A8842ED
:101EF0000EDB384600F0B8FD1E20E1E7250000208B
:101F0000100000204C000020260000203800002097
:101F100071683069884201D1B06830613069001F52
:101F2000306130690560F08A401CF082384600F06C
:101F30009BFD0020C4E72DE9F04104460D461646FE
:101F40004FF000082078022802D00120BDE8F0817F
:101F500000F086FD8046A07AE8B116F0010F0AD0A5
:101F600005E00023042229462046FEF7ECFFA07A74
:101F70000028F6D105E00023042229462046FEF77A
:101F8000E2FF404600F070FD16F0040F01D1FEF7AD
:101F90007CFE0020DAE76768F88AB98A884204DBA9
:101FA000404600F061FD1E20D0E716F0020F0BD076
:101FB00079683869884201D1B86838613869001F8A
:101FC00038613869056009E0F968081DF8600D603E
:101FD000D7E90210884201D17868F860F88A401C7D
:101FE000F882404600F040FD0020AFE72DE9F047C1
:101FF00004460D464FF0000A2078022802D0012046
:10200000BDE8F08700F02CFD8246A07A287404F128
:102010000B0805F10809002705E018F8010B09F87D
:10202000010B781CC7B2082FF7D36668F08A18B185
:1020300030690068286001E000202860F08AA880EC
:10204000B08AE880504600F00FFD0020D8E72DE967
:10205000F04178211048FEF707FD00240DE0601CD8
:1020600085B204EB44000C4901EBC00705EB4500C9
:1020700001EBC0063E60601C84B2042CEFD304EB7D
:102080004400054901EBC0070020386008460349B9
:102090000860BDE8F0810000240E00204C00002004
:1020A0002DE9FF5F04460D460020009000F0D8FCAB
:1020B0000090F84850F8250030B1009800F0D4FCAA
:1020C000282004B0BDE8F09FFF2C03D1F24800683F
:1020D00090F83240EF4850F8247027B9009800F08B
:1020E000C3FC2920EDE7012F04D1009800F0BCFCCF
:1020F0004320E6E74FEAE50805F00709012000FA6A
:1021000008F000F0FF0A012000FA09F0C0B20290C6
:102110000020E04941F82400084640F8257097F86F
:102120003400039097F83600019097F835B0DB49FA
:102130000398085C10EA0B0F23D008460399405C13
:102140006FEA0B01C9B20840D44A039950541146B2
:102150000398085C38B9D24800780199C943C9B2DC
:102160000840CF490870CE48007840EA0A00CC49C0
:102170000870CA4810F8080002990843C74901F8D6
:102180000800FE6916B306F10B000399415C6FEA83
:102190000B00C0B2014006F10B00039A8154039971
:1021A000405C28B9B07A0199C943C9B20840B072FD
:1021B000B07A40EA0A00B07206F10B0010F808107D
:1021C0000298014306F10B0000F8081087F832501E
:1021D00087F8348087F8339087F836A0029887F81C
:1021E0003500009800F040FCAE480078012801D18D
:1021F000FEF74BFD002064E72DE9FE4F04460D4637
:10220000164698464FF0000900F02AFC8146A64881
:10221000007828B1484600F027FC3C20BDE8FE8F3E
:102220009C4850F8280058BB01209A4941F82800E2
:10223000484600F019FC002332462946204600F0AB
:102240006FFC82460023009301931A465146404694
:102250000293FEF716FF074637B992480078012827
:102260000CD1FEF712FD09E000F0FAFB81460020D8
:10227000884941F82800484600F0F6FB3846CDE78B
:10228000484600F0F1FB2820C8E712F0010F08D003
:1022900012F0020F05D002E0491E002308C00029F9
:1022A000FAD170472DE9F04F87B004460D46164627
:1022B0001F46DDE912ABDDE910890020049000F033
:1022C000CFFB04907848007830B1049800F0CCFB44
:1022D0003C2007B0BDE8F08F6E4850F8270000287A
:1022E00032D101206B4941F82700049800F0BCFB73
:1022F00051464846149AFFF7C8FF32462946204601
:10230000149B00F00DFC0690149BCDE900AB0293EA
:1023100043464A4638460699FEF7B3FE05900598AF
:1023200030B96048007801280CD1FEF7AEFC09E016
:1023300000F096FB04900020564941F827000498CD
:1023400000F092FB0598C4E7049800F08DFB28206C
:10235000BFE72DE9F041044600275348007810B14B
:102360004020BDE8F0813F2C01D13E20F9E700F08C
:1023700077FB0746FF2C03D14748006890F83240AE
:10238000444850F8246026B9384600F06DFB4320DD
:10239000E7E7012E04D1384600F066FB3D20E0E778
:1023A00016F8340F3D49085C7178C943C9B208403A
:1023B00031783A4A505416F834091146085C40B94D
:1023C00096F83600C043C0B2354909780840344910
:1023D0000870F06918B13046F169FEF79CFD756A26
:1023E00015B12846FEF7D2FF0020F06286F83000D3
:1023F00086F831002D480078FF2804D22B48007859
:10240000401C2A490870384600F02EFBFEF782FD7A
:1024100000F026FB07462548007820B123480078C5
:10242000401E22490870304600F077FB20480078B3
:10243000401E1F4908700020164941F82400B06969
:1024400030B90020716988611A497069086005E037
:10245000D6E905014861D6E905108861164800688B
:1024600070611548066015A0F064384600F0FCFA6B
:102470000C480078012801D1FEF707FC002070E726
:102480002DE9F041044600273F2C19D13E20BDE83C
:10249000F081000034090020380000202A000020CC
:1024A0002900002032000020250000202600002006
:1024B00033000020440000203C0000203F000000CA
:1024C000FF2C0CD100F0CCFA0746F048006890F8D9
:1024D0003750384600F0C8FA2846BDE8F08100F0D1
:1024E000BFFA0746EA4850F8246026B9384600F09B
:1024F000BBFA4320F1E7012E04D1384600F0B4FACC
:102500003D20EAE73F2086F83700384600F0ACFA75
:102510000020E2E72DE9F04704460D4616464FF04D
:102520000008DC48007820B1112030700020BDE8A0
:10253000F08700F095FA8046FF2C03D1D34800685D
:1025400090F83240D24850F8247037B9404600F035
:102550008BFA432030700020E9E7012F06D1404676
:1025600000F082FA432030700020E0E7F86C286029
:102570002868FEF77CFD8146404600F075FA002091
:1025800030704846D3E72DE9F04104460D46164623
:102590004FF00008BF48007818B112203070BDE835
:1025A000F08100F05DFA8046FF2C03D1B748006847
:1025B00090F83240B64850F824702FB9404600F0E9
:1025C00053FA43203070EAE7012F05D1404600F06E
:1025D0004BFA43203070E2E7FD64404600F044FAD5
:1025E00000203070DBE770B50446002600F038FAB2
:1025F0000646A74850F8245025B9304600F034FA72
:10260000462070BD012D04D1304600F02DFA432044
:10261000F7E795F8300010F0080F2FD015F8300FBD
:1026200000F0F700287015F8300910BBE86AE0B92F
:1026300005F13405A8789849097840EA01009649DF
:10264000087028789549085C697840EA010015F817
:102650003419924A5054304600F006FA90480078F7
:10266000012809D1FEF711FB06E0304600F0FCF925
:1026700002E0304600F0F8F90020C2E7304600F0F2
:10268000F3F94420BDE72DE9F04704460D464FF02D
:10269000000A00202860686000F0E2F98246FF2C02
:1026A00003D17A48006890F83240794850F82460A5
:1026B0002EB9504600F0D8F94320BDE8F087012E2E
:1026C00004D1504600F0D0F94320F6E7308A10F0EC
:1026D000010F04D1504600F0C7F94520EDE74FF057
:1026E0000008D6F80C90B768504600F0BDF901E03C
:1026F00008F1010802CF0029FAD04FEA88002860CB
:10270000A9EB0800800068600020D6E72DE9F041C1
:1027100004464FF0000800F0A3F98046FF2C05D1D5
:102720005A48006890F83240012508E05748006890
:1027300090F83200A04201D1012500E00025544864
:1027400050F824702FB9404600F08EF94820BDE8BB
:10275000F081012F04D1404600F086F94320F6E7CE
:1027600097F834604D48805D97F83510C943C9B279
:1027700008404A4988550846805D40B997F83600B8
:10278000C043C0B24449097808404349087097F8EB
:10279000300040F0080087F83000404600F064F94F
:1027A000012D01D1FEF771FA0020D0E72DE9F041AB
:1027B00004460D46002700F053F90746FF2C03D1CD
:1027C0003248006890F83240314850F824602EB901
:1027D000384600F049F92920BDE8F081012E04D1E6
:1027E000384600F041F94320F6E7542231462846A6
:1027F000FEF733FC384600F037F90020ECE72DE90E
:10280000F04704460D461646002700F029F9074612
:10281000FF2C03D11D48D0F8008002E01C4850F87E
:10282000248008F1500050F82590384600F01CF93B
:10283000002030704846BDE8F0872DE9F047044697
:102840000D46164698464FF0000900F009F98146FA
:10285000FF2C02D10D48076802E00D4850F82470A3
:1028600007F1500040F82560484600F0FDF80020D0
:1028700088F80000BDE8F08710B50448006800F053
:102880009FF9FF20FFF765FD10BD00003800002014
:102890003409002025000020290000202A00002003
:1028A0003200002070B5044600266648007800B16A
:1028B00070BD6548007800B1FAE73CB300F0D0F88D
:1028C00006466248006890F834506148405D5F49B0
:1028D000096891F83510C943C9B208405C494855A8
:1028E0000846405D50B95948006890F83600C0432A
:1028F000C0B25849097808405649087053480068E2
:10290000C462304600F0B0F8FEF7BFF9D0E72DE919
:10291000F04104460D4616461F464A48007810B15D
:102920005520BDE8F0814848007808B13220F8E72A
:10293000B81CC82148434FF47A71B0FBF1F14FF451
:1029400061606043C5EB051200EB8200304400EB90
:10295000C00202EB001001EBC0084046FFF7A2FFE7
:102960000020DEE770B5044600263F2C01D32A2064
:1029700070BD00F075F80646374850F8245025B968
:10298000304600F071F84320F2E7012D04D13046C3
:1029900000F06AF84320EBE7E86A20B9304600F01F
:1029A00063F85020E4E70020E86295F8300010F06A
:1029B000370F09D015F8300F20F0370028700120AC
:1029C0006870A5F1300502E0002085F8310095F827
:1029D000300010F0080F18D105F13405A8781D4912
:1029E000097840EA01001B49087028781849085CFA
:1029F000697840EA010015F83419154A50543046F8
:102A000000F032F8FEF741F902E0304600F02CF811
:102A10000020ADE770B5002500F022F805460F480C
:102A20000468284600F020F8204670BD70B50446C2
:102A3000002500F015F8054608480460284600F017
:102A400013F870BD2500002026000020380000206B
:102A50002A00002029000020340900205000002016
:102A6000EFF3108072B6704780F310887047204CE7
:102A7000204D25604FF0000484F309881E4C4FF070
:102A8000010525701D4C4FF08055256062B6FEE7AC
:102A900030B41A4C4FF08055256030BC704730B4CC
:102AA000164C4FF08055256030BC704700BF72B6A1
:102AB000EFF3098028B1203880E8F00F1049096849
:102AC000086000B50F4880475DF804EB0E480F49D9
:102AD0000A7802700A480E490A680260106890E895
:102AE000F00F203080F309884EF0040E62B6704774
:102AF00020ED00E00000FFFF3200002004ED00E0C8
:102B000038000020BB2B00082700002028000020F0
:102B1000400000207047704770477047704770470B
:102B200070B5044610464FF080750560051F2846B5
:102B30002C606FF00105061F304635604FF01235EE
:102B4000061F304635604FF00335061F30463560AE
:102B50004FF00235061F304635606D10061F3046B7
:102B60003560051F284629604FF01135061F304695
:102B700035604FF01035061F304635604FF009358F
:102B8000061F304635604FF00835061F3046356069
:102B90004FF00735061F304635604FF00635061FEB
:102BA000304635604FF00535061F304635604FF032
:102BB0000435061F3046356070BD7047704770475A
:102BC000704770477047704770477047754600F010
:102BD00029F8AE4605006946534620F007008546B1
:102BE00018B020B5FDF70CFBBDE820404FF0000603
:102BF0004FF000074FF000084FF0000B21F00701E5
:102C0000AC46ACE8C009ACE8C009ACE8C009ACE827
:102C1000C0098D4670470446AFF300802046FDF79B
:102C2000D0FA0000004870479C0E00200148704711
:102C300070470000A00E002090EA010F48BF81F00D
:102C4000004100F18282421A3CBF801A89184FEA83
:102C5000D0524FF07F4C1CEA410FA2EBD15318BF6A
:102C60009CEA026F00F040804FF0004C4CEA0020DC
:102C70004CEA012121FA03FC10EB0C0C23D202F1E7
:102C8000FF325FEA1C2040EBC25038BF70471CF097
:102C90007F0F4FEA400C18BFBCF17F4F38BF704721
:102CA000C3F12003994008BF20F00100BCF17F4F21
:102CB00038BF7047A0F1C0404FF0FF0141EAD0514A
:102CC0004FEAC15070474FEA3C00000A40EBC25047
:102CD00028BF1CF0FF0F4FEA400CE1D018BFBCF139
:102CE0007F4F38BF7047E5E79CEA026F05D010EAD6
:102CF0005C0F08BF00F000407047BCEB410F4FEA8B
:102D0000400228BF9445DFF828C0C0F01580AFF31B
:102D10000080B2EB410F05D012F1807F08BF7047F1
:102D20000846704790EA010F58BF70470148704746
:102D3000010000040000C07F014800F0D4BA000088
:102D40000000C07F014800F0CEBA00000000C07F44
:102D50004FF47F0C1CEAD0121EBF1CEAD11392EA7A
:102D60000C0F93EA0C0F00F0A58090EA010F48BF0A
:102D700042F4807240F4000C41F400002CF07F41DA
:102D800020F07F4000B58142A2EB03020FF2401C0D
:102D9000ACEB504EC0F100009EF800E04FEA4E0E42
:102DA00000FB0EFC38BF49004FEA2C1C02F5FA026A
:102DB0000CFB0EF34FEACE1E4FEA112C4FEAC12155
:102DC0000EEB635E0EFB0CFC4FEA1C5300FB031181
:102DD0004FEA112C4FEA01310EFB0CFC02F4807E0D
:102DE00042EB22424FEADC4C00FB0C11C14228BFEF
:102DF00009184CEB0333012924BF4EF0020E4EF0AC
:102E0000804E10EB410F24BF4EF0010E4EF0804E6D
:102E100008BF4EF0040E4EF008015DF804EB43EBE2
:102E2000C25018BFB2F57C0F38BF704741EAC0717D
:102E300008BF20F00100B2F57C0F38BF704729D5DC
:102E400012F0F00F1CBF00F1C04000F000407047CE
:102E5000008182838485868788898B8C8D8E8F9173
:102E60009293959697999A9C9D9FA0A2A3A5A7A897
:102E7000AAACAEB0B2B3B5B7B9BCBEC0C2C5C7C9C3
:102E8000CCCED1D4D7D9DCDFE2E6E9ECF0F3F7FA27
:102E9000FE0000004FEA400C0CF1807CBCF17E4F3C
:102EA00028BF7047B0F1C0404FF07F404CBF40108A
:102EB0004008704790EA010F0CEAD11348BF42F472
:102EC0008072624538BF634507D213F47F0F23D069
:102ED00080EA010000F0004070474FF0807C1CEB5E
:102EE000400F98BF1CEB410FDFF840C03FF624AF06
:102EF000AFF300804FF0807C1CEB400F02BF1CEB57
:102F0000410F0B4870471CEB410F0CBF002020F015
:102F1000004040EAC250704712F47F0F04BF0448DB
:102F2000704742F0FF004FEAC050704704000004B1
:102F30000000C07FC2154FEA002318BF43F00043D2
:102F400005D4D2F19E020AD323FA02F070474FEA69
:102F50004001B1F1FE4F02D24FF000007047DFF8A0
:102F600028C04FEA4001B1F17F4F88BF4CF4803C4C
:102F70003FF6E8AE1CBF6FEAE0707047AFF3008029
:102F80006FEAE070704700006800020410F0004231
:102F900018BF404242F08042B0FA80F18840A2EB74
:102FA000C15202F1786208BF7047410642EB20200F
:102FB00018BF5FF0806C28BF20F0010070474FF011
:102FC0008042FFF7E9BF00004FF47F0C1CEAD012EB
:102FD0001EBF1CEAD11392EA0C0F93EA0C0F00F00B
:102FE0004A8090EA010F48BF42F480724FF0004CD3
:102FF0004CEA00204CEA01211A44A0FB01C3A2F5CF
:103000000002BCF1000F18BF43F0010302F4807C02
:10301000B3F1004F38BF5B0042EB2242180A40EB8D
:10302000C25028BF13F07F0F18BFB2F57C0F38BF16
:10303000704708BF20F00100B2F57C0F38BF704721
:103040000BD582F0FF0212F5803FC8BF704700F138
:10305000C040D8BF00F00040704700F5000C5FEAA8
:103060004C0C48BF7047B0F1C0404FF07F404CBFA0
:1030700040104008704790EA010F0CEAD11348BF96
:1030800042F48072624538BF634504D280EA010091
:1030900000F0004070474FF0807C1CEB400F98BF61
:1030A0001CEB410F4FF0030C4CF0806C3FF644AE2C
:1030B000AFF3008012F47F0F1FBF13F47F0F42F0B5
:1030C000FF02D00570470148704700000000C07F34
:1030D00010B412F47F0F4FEA00204FEA012110D103
:1030E000B0FA80F400FA04F0A2EB044213F47F0F6C
:1030F00002F5803218BF41F0004100D010BC18BF6B
:10310000604740F00040B1FA81F401FA04F1A3EB0A
:10311000044310BC03F58033604710B5FFF786FD0C
:103120004FF00001016010BD80F0004090EA010FF7
:103130007FF589AD81F0004100F007B890EA010FFA
:1031400048BF81F000413FF57EAD421A3EBF82F09C
:103150000042801A89184FEAD0524FF07F4C1CEA87
:10316000410FA2EBD15318BF9CEA026F4FD04FF032
:10317000004C4CEA00204CEA012121FA03FCB0EBA0
:103180000C0C0FD412F0FE0F18BF5FEA4C001DD5D7
:10319000001240EBC25038BF70471CF03F0F18BF01
:1031A00070470BE0A2F101025FEA1C2040EBC25025
:1031B00038BF70471CF07F0F18BF7047C3F1200362
:1031C000994014BF401E20F0010070474FEA1223BF
:1031D00016D0004204BF002070474FEA9000B0FABA
:1031E00080FCA2EB0C02CCF1280C60FA0CF093EA04
:1031F000122F04BF00EBC25070474FEAC3707047F4
:103200005FEADC1008BF70474FEAC37070479CEA62
:10321000026F04D010EA5C0F08BF00207047BCEBBF
:10322000410F4FEA400228BF9445DFF82CC0FFF45D
:1032300083ADAFF30080B2EB410F06D012F1807F77
:1032400008BF704781F00040704790EA010F48BF07
:103250007047024870470000020000040000C07F71
:1032600000F0004343EAD05323F48073C3F1C10359
:1032700023F0004117291FD8C3F1200310FA03F1EE
:10328000C3F1200320F07F4040F4000020FA03F057
:1032900003F0004340EA03000DD00B46590009D368
:1032A00018BF401C06D17FEAE27398BF401C38BFAC
:1032B00020F0010070477047182903EB912318BFD5
:1032C0006FF00041013168BF03F0004009D64002B1
:1032D00003F0004000F1010004BF12F0004F20F0A5
:1032E0000100704770470CF00F03092B08BF08203E
:1032F00000F02B800A2B0BD0082B18BF704708BF9B
:103300001CF0400F0AD04FF000004FF00001704752
:103310001CF0400F18BF4FF0004070471CF0100F1A
:1033200008D020F0704300F07F4242EAD3014FEA18
:103330004370704700F0604021F07F4242EA000293
:1033400001F07F4040EA727070471CF4801F11D07A
:103350001CF4E02F03D06FEACC31490070474FF0E6
:103360004050EFF3008222F0704242EA000282F302
:10337000008870474FF00000704700000100020015
:10338000010003000100020001000400010002002E
:10339000010003000100020001000500010002001D
:1033A000010003000100020001000400010002000E
:1033B00001000300010002000100060001000200FC
:1033C00001000300010002000100040001000200EE
:1033D00001000300010002000100050001000200DD
:1033E00001000300010002000100040001000200CE
:1033F00001000300010002000100070001000200BB
:1034000001000300010002000100040001000200AD
:10341000010003000100020001000500010002009C
:10342000010003000100020001000400010002008D
:10343000010003000100020001000600010002007B
:10344000010003000100020001000400010002006D
:10345000010003000100020001000500010002005C
:10346000010003000100020001000400010002004D
:103470000100030001000200010000009C3400086C
:1034800000000020540000006C010008F034000827
:1034900054000020AC160000880100080000000065
:1034A000000000000000000000000000000000001C
:1034B000000000000000000000000000000000000C
:1034C00000000000000000000000000000000000FC
:1034D00000000000000000000000000000000000EC
:1034E00000000000000000000000000000000000DC
:0400000508000131BD
:00000001FF
